:020000040000FA
:0400000013EF00F00A
:06000800058254ED00F03A
:100018000580E0CF01F001C0E0FF059010008FEFF0
:1000280000F0700ED312030ED3120F0E936E000E53
:10003800956E000E816E8368D58ED58CD59AD5962F
:10004800D550F80B0509D56E000ED76E820ED66E08
:10005800D08EF28AF184F288F19CF28EF28CF90E3D
:10006800036439EF00F03BEF00F033EF00F081BCA0
:1000780040EF00F043EF00F0010E44EF00F0000EF7
:10008800FF0A026E023A0246024681500218BF0B6E
:100098000218816E000E036E33EF00F013EF00F0CC
:1000A8000600F29EF2A25BEF00F05DEF00F07FEF3A
:1000B80000F00404D8A463EF00F065EF00F066EFE9
:1000C80000F0D58E020E0418D8A46DEF00F06FEF83
:1000D80000F071EF00F0D59E818C030E0418D8A4AF
:1000E80078EF00F07AEF00F07DEF00F0819C000ED1
:1000F800046E042AF292F2A484EF00F086EF00F076
:100108008CEF00F0032AF294000ED76E820ED66EA2
:10011800F28E059211003C0EF66E010EF76E000E7F
:10012800F86E0900F5CF04F0036A05900592000106
:0501380015EF00F001CD
:020000040020DA
:08000000FFFFFFFFFFFFFFFF00
:020000040030CA
:0E0000000008191EFF8185FF0FC00FE00F40A2
:00000001FF
